{
  "contractName": "Eden",
  "abi": [
    {
      "inputs": [],
      "payable": false,
      "stateMutability": "nonpayable",
      "type": "constructor"
    },
    {
      "anonymous": false,
      "inputs": [
        {
          "indexed": false,
          "internalType": "uint256",
          "name": "_id",
          "type": "uint256"
        },
        {
          "indexed": true,
          "internalType": "address",
          "name": "_owner",
          "type": "address"
        }
      ],
      "name": "OrigineeCreation",
      "type": "event"
    },
    {
      "constant": true,
      "inputs": [],
      "name": "edenWood",
      "outputs": [
        {
          "internalType": "contract EdenWood",
          "name": "",
          "type": "address"
        }
      ],
      "payable": false,
      "stateMutability": "view",
      "type": "function"
    },
    {
      "constant": true,
      "inputs": [
        {
          "internalType": "address",
          "name": "",
          "type": "address"
        }
      ],
      "name": "hasOriginees",
      "outputs": [
        {
          "internalType": "bool",
          "name": "",
          "type": "bool"
        }
      ],
      "payable": false,
      "stateMutability": "view",
      "type": "function"
    },
    {
      "constant": true,
      "inputs": [],
      "name": "name",
      "outputs": [
        {
          "internalType": "string",
          "name": "",
          "type": "string"
        }
      ],
      "payable": false,
      "stateMutability": "view",
      "type": "function"
    },
    {
      "constant": true,
      "inputs": [],
      "name": "origineeCount",
      "outputs": [
        {
          "internalType": "uint256",
          "name": "",
          "type": "uint256"
        }
      ],
      "payable": false,
      "stateMutability": "view",
      "type": "function"
    },
    {
      "constant": true,
      "inputs": [
        {
          "internalType": "uint256",
          "name": "",
          "type": "uint256"
        }
      ],
      "name": "origineeLocation",
      "outputs": [
        {
          "internalType": "uint256",
          "name": "",
          "type": "uint256"
        }
      ],
      "payable": false,
      "stateMutability": "view",
      "type": "function"
    },
    {
      "constant": true,
      "inputs": [
        {
          "internalType": "address",
          "name": "",
          "type": "address"
        },
        {
          "internalType": "uint256",
          "name": "",
          "type": "uint256"
        }
      ],
      "name": "origineeOwners",
      "outputs": [
        {
          "internalType": "uint256",
          "name": "",
          "type": "uint256"
        }
      ],
      "payable": false,
      "stateMutability": "view",
      "type": "function"
    },
    {
      "constant": true,
      "inputs": [
        {
          "internalType": "uint256",
          "name": "",
          "type": "uint256"
        }
      ],
      "name": "originees",
      "outputs": [
        {
          "internalType": "uint256",
          "name": "id",
          "type": "uint256"
        },
        {
          "internalType": "address",
          "name": "owner",
          "type": "address"
        }
      ],
      "payable": false,
      "stateMutability": "view",
      "type": "function"
    },
    {
      "constant": true,
      "inputs": [],
      "name": "owner",
      "outputs": [
        {
          "internalType": "address",
          "name": "",
          "type": "address"
        }
      ],
      "payable": false,
      "stateMutability": "view",
      "type": "function"
    },
    {
      "constant": true,
      "inputs": [
        {
          "internalType": "address",
          "name": "",
          "type": "address"
        }
      ],
      "name": "sawmillOwners",
      "outputs": [
        {
          "internalType": "uint256",
          "name": "",
          "type": "uint256"
        }
      ],
      "payable": false,
      "stateMutability": "view",
      "type": "function"
    },
    {
      "constant": false,
      "inputs": [
        {
          "internalType": "address",
          "name": "_origineeOwner",
          "type": "address"
        }
      ],
      "name": "createOriginee",
      "outputs": [
        {
          "internalType": "bool",
          "name": "",
          "type": "bool"
        }
      ],
      "payable": false,
      "stateMutability": "nonpayable",
      "type": "function"
    },
    {
      "constant": true,
      "inputs": [],
      "name": "getOriginees",
      "outputs": [
        {
          "internalType": "uint256[]",
          "name": "",
          "type": "uint256[]"
        }
      ],
      "payable": false,
      "stateMutability": "view",
      "type": "function"
    }
  ],
  "bytecode": "0x60806040526040518060400160405280600481526020017f4564656e000000000000000000000000000000000000000000000000000000008152506000908051906020019061004f9291906100a8565b50600060085534801561006157600080fd5b5033600160006101000a81548173ffffffffffffffffffffffffffffffffffffffff021916908373ffffffffffffffffffffffffffffffffffffffff16021790555061014d565b828054600181600116156101000203166002900490600052602060002090601f016020900481019282601f106100e957805160ff1916838001178555610117565b82800160010185558215610117579182015b828111156101165782518255916020019190600101906100fb565b5b5090506101249190610128565b5090565b61014a91905b8082111561014657600081600090555060010161012e565b5090565b90565b610a2c8061015c6000396000f3fe608060405234801561001057600080fd5b50600436106100a95760003560e01c80634325332b116100715780634325332b1461025a5780635325d6f2146102b65780638da5cb5b1461030e578063bbb1ee0014610358578063c43277651461039a578063f610d9bf146103f6576100a9565b806306fdde03146100ae578063125c87cc1461013157806323ec0b871461017b5780632a2e8dd1146101dd5780633107da96146101fb575b600080fd5b6100b661046b565b6040518080602001828103825283818151815260200191508051906020019080838360005b838110156100f65780820151818401526020810190506100db565b50505050905090810190601f1680156101235780820380516001836020036101000a031916815260200191505b509250505060405180910390f35b610139610509565b604051808273ffffffffffffffffffffffffffffffffffffffff1673ffffffffffffffffffffffffffffffffffffffff16815260200191505060405180910390f35b6101c76004803603604081101561019157600080fd5b81019080803573ffffffffffffffffffffffffffffffffffffffff1690602001909291908035906020019092919050505061052f565b6040518082815260200191505060405180910390f35b6101e561055d565b6040518082815260200191505060405180910390f35b610203610563565b6040518080602001828103825283818151815260200191508051906020019060200280838360005b8381101561024657808201518184015260208101905061022b565b505050509050019250505060405180910390f35b61029c6004803603602081101561027057600080fd5b81019080803573ffffffffffffffffffffffffffffffffffffffff1690602001909291905050506105f8565b604051808215151515815260200191505060405180910390f35b6102f8600480360360208110156102cc57600080fd5b81019080803573ffffffffffffffffffffffffffffffffffffffff169060200190929190505050610618565b6040518082815260200191505060405180910390f35b610316610630565b604051808273ffffffffffffffffffffffffffffffffffffffff1673ffffffffffffffffffffffffffffffffffffffff16815260200191505060405180910390f35b6103846004803603602081101561036e57600080fd5b8101908080359060200190929190505050610656565b6040518082815260200191505060405180910390f35b6103dc600480360360208110156103b057600080fd5b81019080803573ffffffffffffffffffffffffffffffffffffffff16906020019092919050505061066e565b604051808215151515815260200191505060405180910390f35b6104226004803603602081101561040c57600080fd5b8101908080359060200190929190505050610941565b604051808381526020018273ffffffffffffffffffffffffffffffffffffffff1673ffffffffffffffffffffffffffffffffffffffff1681526020019250505060405180910390f35b60008054600181600116156101000203166002900480601f0160208091040260200160405190810160405280929190818152602001828054600181600116156101000203166002900480156105015780601f106104d657610100808354040283529160200191610501565b820191906000526020600020905b8154815290600101906020018083116104e457829003601f168201915b505050505081565b600260009054906101000a900473ffffffffffffffffffffffffffffffffffffffff1681565b6006602052816000526040600020818154811061054857fe5b90600052602060002001600091509150505481565b60085481565b6060600660003373ffffffffffffffffffffffffffffffffffffffff1673ffffffffffffffffffffffffffffffffffffffff1681526020019081526020016000208054806020026020016040519081016040528092919081815260200182805480156105ee57602002820191906000526020600020905b8154815260200190600101908083116105da575b5050505050905090565b60046020528060005260406000206000915054906101000a900460ff1681565b60056020528060005260406000206000915090505481565b600160009054906101000a900473ffffffffffffffffffffffffffffffffffffffff1681565b60076020528060005260406000206000915090505481565b6000600160009054906101000a900473ffffffffffffffffffffffffffffffffffffffff1673ffffffffffffffffffffffffffffffffffffffff163373ffffffffffffffffffffffffffffffffffffffff16146106ca57600080fd5b6000600854905060405180604001604052808281526020018473ffffffffffffffffffffffffffffffffffffffff16815250600360008381526020019081526020016000206000820151816000015560208201518160010160006101000a81548173ffffffffffffffffffffffffffffffffffffffff021916908373ffffffffffffffffffffffffffffffffffffffff1602179055509050506001600860008282540192505081905550600460008473ffffffffffffffffffffffffffffffffffffffff1673ffffffffffffffffffffffffffffffffffffffff16815260200190815260200160002060009054906101000a900460ff1661087f57604051806020016040528082815250600660008573ffffffffffffffffffffffffffffffffffffffff1673ffffffffffffffffffffffffffffffffffffffff168152602001908152602001600020906001610821929190610985565b506001600460008573ffffffffffffffffffffffffffffffffffffffff1673ffffffffffffffffffffffffffffffffffffffff16815260200190815260200160002060006101000a81548160ff0219169083151502179055506108e9565b600660008473ffffffffffffffffffffffffffffffffffffffff1673ffffffffffffffffffffffffffffffffffffffff1681526020019081526020016000208190806001815401808255809150509060018203906000526020600020016000909192909190915055505b8273ffffffffffffffffffffffffffffffffffffffff167fc4d57a3d937721509ae94d78c22420c057a92ace32f3677806a2c5b1b876911d826040518082815260200191505060405180910390a26001915050919050565b60036020528060005260406000206000915090508060000154908060010160009054906101000a900473ffffffffffffffffffffffffffffffffffffffff16905082565b8280548282559060005260206000209081019282156109c1579160200282015b828111156109c05782518255916020019190600101906109a5565b5b5090506109ce91906109d2565b5090565b6109f491905b808211156109f05760008160009055506001016109d8565b5090565b9056fea265627a7a72315820139c389c41114b74be72455ba7b715d13f264765f11e0b340597e2b80f58cc4c64736f6c63430005100032",
  "source": "pragma solidity ^0.5.0;\n\nimport \"./EdenWood.sol\";\n\ncontract Eden {\n  string  public name = \"Eden\";\n  address public owner;\n  EdenWood public edenWood;\n  mapping(uint => Originee) public originees;\n  mapping(address => bool) public hasOriginees;\n  mapping(address => uint) public sawmillOwners;\n  mapping(address => uint[]) public origineeOwners;\n  mapping(uint => uint) public origineeLocation;\n  uint public origineeCount = 0;\n\n  event OrigineeCreation(\n      uint256 _id,\n      address indexed _owner\n  );\n\n  struct Sawmil {\n    uint id;\n    uint level;\n    address owner;\n  }\n  struct Originee {\n    uint id;\n    address owner;\n  }\n\n  struct SawmilProduction {\n    Originee worker;\n    Sawmil sawmil;\n    uint256 amount;\n    uint64 sinceBlock;\n    uint64 untilBlock;\n  }\n\n  constructor() public {\n    owner = msg.sender;\n  }\n\n  function createOriginee(address _origineeOwner) public returns(bool){\n    require(msg.sender == owner);\n    uint currentId = origineeCount;\n    originees[currentId] = Originee(currentId, _origineeOwner);\n    origineeCount += 1;\n    if(!hasOriginees[_origineeOwner]){\n      origineeOwners[_origineeOwner] = [currentId];\n      hasOriginees[_origineeOwner] = true;\n    } else {\n      origineeOwners[_origineeOwner].push(currentId);\n    }\n    emit OrigineeCreation(currentId, _origineeOwner);\n    return true;\n  }\n\n  function getOriginees()public view returns( uint  [] memory){\n      return origineeOwners[msg.sender];\n  }\n  // function getOriginees() public returns(uint[]){\n  //   if(hasOriginees[msg.sender]){\n  //     return origineeOwners[msg.sender];\n  //   } else {\n  //     return [];\n  //   }\n  //\n  // }\n  // function employWorker(Originee memory worker) public {\n  //   return;\n  // }\n\n  // function releaseWorker() public {\n  //   return;\n  // }\n  //\n  // function levelUp() public {\n  //   return;\n  // }\n  //\n  // function produceWood() public {\n  //   return;\n  // }\n  // function destroy() public {\n  //   return;\n  // }\n}\n",
  "sourcePath": "/Users/mgrabon/Eden/src/contracts/Eden.sol",
  "compiler": {
    "name": "solc",
    "version": "0.5.16+commit.9c3226ce.Emscripten.clang"
  },
  "schemaVersion": "3.2.3",
  "updatedAt": "2021-04-26T15:47:16.105Z",
  "networkType": "ethereum",
  "devdoc": {
    "methods": {}
  },
  "userdoc": {
    "methods": {}
  }
}